8=FIX.4.4|9=77|35=A|34=1|49=ORDERGEN|52=20251009-22:50:16.719|56=ORDERACC|98=0|108=30|141=Y|10=206|8=FIX.4.4|9=59|35=0|34=2|49=ORDERGEN|52=20251009-22:50:46.846|56=ORDERACC|10=124|8=FIX.4.4|9=158|35=D|34=3|49=ORDERGEN|52=20251009-22:50:49.817|56=ORDERACC|11=7c3a11ef-7cc6-4726-83f1-66c359fb80e4|38=1|40=2|44=1|54=1|55=PETR4|59=0|60=20251009-22:50:49.815|10=220|8=FIX.4.4|9=59|35=0|34=4|49=ORDERGEN|52=20251009-22:51:20.143|56=ORDERACC|10=109|8=FIX.4.4|9=59|35=0|34=5|49=ORDERGEN|52=20251009-22:51:50.445|56=ORDERACC|10=118|8=FIX.4.4|9=59|35=0|34=6|49=ORDERGEN|52=20251009-22:52:20.622|56=ORDERACC|10=114|