8=FIX.4.4|9=77|35=A|34=1|49=ORDERGEN|52=20251010-11:51:24.111|56=ORDERACC|98=0|108=30|141=Y|10=182|8=FIX.4.4|9=59|35=0|34=2|49=ORDERGEN|52=20251010-11:51:54.560|56=ORDERACC|10=107|8=FIX.4.4|9=59|35=0|34=3|49=ORDERGEN|52=20251010-11:52:25.373|56=ORDERACC|10=109|8=FIX.4.4|9=164|35=D|34=4|49=ORDERGEN|52=20251010-11:52:45.614|56=ORDERACC|11=412458e6-9c8a-4260-896d-113543bc6655|38=50000|40=2|44=500|54=1|55=PETR4|59=0|60=20251010-11:52:45.611|10=238|8=FIX.4.4|9=164|35=D|34=5|49=ORDERGEN|52=20251010-11:52:47.950|56=ORDERACC|11=b8e4c1ad-c24c-4416-a9c6-f79d5bae63d2|38=50000|40=2|44=500|54=1|55=PETR4|59=0|60=20251010-11:52:47.950|10=161|8=FIX.4.4|9=164|35=D|34=6|49=ORDERGEN|52=20251010-11:52:49.901|56=ORDERACC|11=2eb39414-0668-405e-9cbc-f53bcd5f6666|38=50000|40=2|44=500|54=1|55=PETR4|59=0|60=20251010-11:52:49.901|10=233|8=FIX.4.4|9=164|35=D|34=7|49=ORDERGEN|52=20251010-11:52:51.504|56=ORDERACC|11=f470b772-492f-4bb1-b0c6-1452c078768f|38=50000|40=2|44=500|54=1|55=PETR4|59=0|60=20251010-11:52:51.504|10=116|8=FIX.4.4|9=164|35=D|34=8|49=ORDERGEN|52=20251010-11:52:52.503|56=ORDERACC|11=e77ea48c-d9d8-461f-8cc7-e7df67ae7dc5|38=50000|40=2|44=500|54=1|55=PETR4|59=0|60=20251010-11:52:52.503|10=227|8=FIX.4.4|9=164|35=D|34=9|49=ORDERGEN|52=20251010-11:52:53.799|56=ORDERACC|11=d8b53472-14f8-4630-b349-562b42389fd7|38=50000|40=2|44=500|54=1|55=PETR4|59=0|60=20251010-11:52:53.799|10=068|8=FIX.4.4|9=165|35=D|34=10|49=ORDERGEN|52=20251010-11:52:58.888|56=ORDERACC|11=ec982a55-16a4-413e-8405-1c144237488b|38=50000|40=2|44=500|54=2|55=PETR4|59=0|60=20251010-11:52:58.888|10=102|8=FIX.4.4|9=165|35=D|34=11|49=ORDERGEN|52=20251010-11:53:03.373|56=ORDERACC|11=11940bfc-eeaa-40ab-86b4-75105a342231|38=50000|40=2|44=500|54=1|55=PETR4|59=0|60=20251010-11:53:03.373|10=226|8=FIX.4.4|9=165|35=D|34=12|49=ORDERGEN|52=20251010-11:53:04.119|56=ORDERACC|11=f6928b23-2db2-4e59-8e16-d2d8f5e6bf1f|38=50000|40=2|44=500|54=1|55=PETR4|59=0|60=20251010-11:53:04.119|10=112|8=FIX.4.4|9=165|35=D|34=13|49=ORDERGEN|52=20251010-11:53:08.680|56=ORDERACC|11=b52b96ad-6bb7-4fcd-bc95-cdd660f8647a|38=50000|40=2|44=500|54=2|55=PETR4|59=0|60=20251010-11:53:08.680|10=009|8=FIX.4.4|9=165|35=D|34=14|49=ORDERGEN|52=20251010-11:53:12.138|56=ORDERACC|11=cbc9090e-188c-4d44-9ec8-f0ce68ca1429|38=50000|40=2|44=500|54=1|55=PETR4|59=0|60=20251010-11:53:12.138|10=108|