8=FIX.4.4|9=77|35=A|34=1|49=ORDERGEN|52=20251009-18:46:35.499|56=ORDERACC|98=0|108=30|141=Y|10=222|8=FIX.4.4|9=59|35=0|34=2|49=ORDERGEN|52=20251009-18:47:06.251|56=ORDERACC|10=121|8=FIX.4.4|9=158|35=D|34=3|49=ORDERGEN|52=20251009-18:47:18.268|56=ORDERACC|11=948e9e9a-5c30-4166-b77b-d967478e2b0e|38=1|40=2|44=1|54=1|55=PETR4|59=0|60=20251009-18:47:18.265|10=200|8=FIX.4.4|9=59|35=0|34=4|49=ORDERGEN|52=20251009-18:47:48.592|56=ORDERACC|10=137|8=FIX.4.4|9=59|35=0|34=5|49=ORDERGEN|52=20251009-18:48:18.865|56=ORDERACC|10=139|8=FIX.4.4|9=59|35=0|34=6|49=ORDERGEN|52=20251009-18:48:49.282|56=ORDERACC|10=137|8=FIX.4.4|9=59|35=0|34=7|49=ORDERGEN|52=20251009-18:49:19.546|56=ORDERACC|10=139|8=FIX.4.4|9=59|35=0|34=8|49=ORDERGEN|52=20251009-18:49:49.832|56=ORDERACC|10=141|8=FIX.4.4|9=59|35=0|34=9|49=ORDERGEN|52=20251009-18:50:20.052|56=ORDERACC|10=117|8=FIX.4.4|9=60|35=0|34=10|49=ORDERGEN|52=20251009-18:50:50.334|56=ORDERACC|10=155|8=FIX.4.4|9=60|35=0|34=11|49=ORDERGEN|52=20251009-18:51:20.609|56=ORDERACC|10=159|8=FIX.4.4|9=60|35=0|34=12|49=ORDERGEN|52=20251009-18:51:50.987|56=ORDERACC|10=172|8=FIX.4.4|9=60|35=0|34=13|49=ORDERGEN|52=20251009-18:52:21.192|56=ORDERACC|10=160|8=FIX.4.4|9=165|35=D|34=14|49=ORDERGEN|52=20251009-18:52:21.954|56=ORDERACC|11=1d5ab937-43cd-4082-bf56-4b65589a2ffa|38=10000|40=2|44=500|54=1|55=PETR4|59=0|60=20251009-18:52:21.954|10=090|8=FIX.4.4|9=165|35=D|34=15|49=ORDERGEN|52=20251009-18:52:22.785|56=ORDERACC|11=a8eb5ace-378f-4732-838e-6baeeef77906|38=10000|40=2|44=500|54=1|55=PETR4|59=0|60=20251009-18:52:22.785|10=212|8=FIX.4.4|9=165|35=D|34=16|49=ORDERGEN|52=20251009-18:52:23.797|56=ORDERACC|11=e94555c5-f8e0-4ab2-9c39-3fcb29598014|38=10000|40=2|44=500|54=1|55=PETR4|59=0|60=20251009-18:52:23.797|10=021|8=FIX.4.4|9=165|35=D|34=17|49=ORDERGEN|52=20251009-18:52:24.637|56=ORDERACC|11=87f3eb2f-0457-4058-b367-c2c40170bb45|38=10000|40=2|44=500|54=1|55=PETR4|59=0|60=20251009-18:52:24.637|10=196|8=FIX.4.4|9=165|35=D|34=18|49=ORDERGEN|52=20251009-18:52:27.973|56=ORDERACC|11=488bd88e-563b-4714-a250-51d485dcf359|38=10000|40=2|44=500|54=1|55=PETR4|59=0|60=20251009-18:52:27.973|10=230|8=FIX.4.4|9=165|35=D|34=19|49=ORDERGEN|52=20251009-18:52:28.406|56=ORDERACC|11=e52914f3-b456-44ae-bc9d-f288aad3717c|38=10000|40=2|44=500|54=1|55=PETR4|59=0|60=20251009-18:52:28.406|10=142|8=FIX.4.4|9=165|35=D|34=20|49=ORDERGEN|52=20251009-18:52:29.717|56=ORDERACC|11=a8b9a96e-7f67-4801-b8af-2e0a48c6311d|38=10000|40=2|44=500|54=1|55=PETR4|59=0|60=20251009-18:52:29.717|10=098|8=FIX.4.4|9=165|35=D|34=21|49=ORDERGEN|52=20251009-18:52:30.172|56=ORDERACC|11=181e941e-abeb-4cce-a9c1-835d4fc378a9|38=10000|40=2|44=500|54=1|55=PETR4|59=0|60=20251009-18:52:30.172|10=216|8=FIX.4.4|9=165|35=D|34=22|49=ORDERGEN|52=20251009-18:52:31.349|56=ORDERACC|11=7e3bde20-500e-43f9-8114-3f1df1181cd4|38=10000|40=2|44=500|54=1|55=PETR4|59=0|60=20251009-18:52:31.349|10=021|8=FIX.4.4|9=165|35=D|34=23|49=ORDERGEN|52=20251009-18:52:31.822|56=ORDERACC|11=ce5dfd62-01ea-4419-9026-ec7fc97c693c|38=10000|40=2|44=500|54=1|55=PETR4|59=0|60=20251009-18:52:31.822|10=135|8=FIX.4.4|9=165|35=D|34=24|49=ORDERGEN|52=20251009-18:52:33.157|56=ORDERACC|11=ace5df04-d23f-4d21-a9ec-8c7a43da214c|38=10000|40=2|44=500|54=1|55=PETR4|59=0|60=20251009-18:52:33.157|10=002|8=FIX.4.4|9=165|35=D|34=25|49=ORDERGEN|52=20251009-18:52:33.564|56=ORDERACC|11=289d440a-c7a5-4475-b209-23aef113fc32|38=10000|40=2|44=500|54=1|55=PETR4|59=0|60=20251009-18:52:33.564|10=235|8=FIX.4.4|9=165|35=D|34=26|49=ORDERGEN|52=20251009-18:52:34.980|56=ORDERACC|11=436a52fd-115d-4983-b9a6-08eb3280cb35|38=10000|40=2|44=500|54=1|55=PETR4|59=0|60=20251009-18:52:34.980|10=250|8=FIX.4.4|9=165|35=D|34=27|49=ORDERGEN|52=20251009-18:52:35.375|56=ORDERACC|11=c92b6604-5d00-402c-a7a8-d36b5523c152|38=10000|40=2|44=500|54=1|55=PETR4|59=0|60=20251009-18:52:35.375|10=184|8=FIX.4.4|9=165|35=D|34=28|49=ORDERGEN|52=20251009-18:52:36.645|56=ORDERACC|11=d0105c2b-6fe4-4683-a465-c228eff6a9e5|38=10000|40=2|44=500|54=1|55=PETR4|59=0|60=20251009-18:52:36.645|10=100|8=FIX.4.4|9=165|35=D|34=29|49=ORDERGEN|52=20251009-18:52:37.077|56=ORDERACC|11=5258c9f0-30d9-4fda-961c-00e881a05d3a|38=10000|40=2|44=500|54=1|55=PETR4|59=0|60=20251009-18:52:37.077|10=044|8=FIX.4.4|9=165|35=D|34=30|49=ORDERGEN|52=20251009-18:52:38.558|56=ORDERACC|11=075195b6-3c26-4df1-ae68-8a6f1067d06b|38=10000|40=2|44=500|54=1|55=PETR4|59=0|60=20251009-18:52:38.557|10=004|8=FIX.4.4|9=165|35=D|34=31|49=ORDERGEN|52=20251009-18:52:38.911|56=ORDERACC|11=21461f73-2187-444c-a205-a346fa172a16|38=10000|40=2|44=500|54=1|55=PETR4|59=0|60=20251009-18:52:38.911|10=083|8=FIX.4.4|9=165|35=D|34=32|49=ORDERGEN|52=20251009-18:52:40.310|56=ORDERACC|11=ece3cb20-cec6-456d-a8fe-2ff1a0703d79|38=10000|40=2|44=500|54=1|55=PETR4|59=0|60=20251009-18:52:40.310|10=247|8=FIX.4.4|9=165|35=D|34=33|49=ORDERGEN|52=20251009-18:52:40.743|56=ORDERACC|11=b4657927-d4ef-4a9e-affc-cc7827225265|38=10000|40=2|44=500|54=1|55=PETR4|59=0|60=20251009-18:52:40.743|10=099|8=FIX.4.4|9=165|35=D|34=34|49=ORDERGEN|52=20251009-18:52:42.253|56=ORDERACC|11=76383804-453b-4f24-8a2a-1dc69c43c918|38=10000|40=2|44=500|54=1|55=PETR4|59=0|60=20251009-18:52:42.253|10=147|8=FIX.4.4|9=165|35=D|34=35|49=ORDERGEN|52=20251009-18:52:42.989|56=ORDERACC|11=d6fd11fb-f1ae-4d9b-b1a5-537ad6bbdc5d|38=10000|40=2|44=500|54=1|55=PETR4|59=0|60=20251009-18:52:42.989|10=178|8=FIX.4.4|9=165|35=D|34=36|49=ORDERGEN|52=20251009-18:52:43.438|56=ORDERACC|11=a7131634-2669-4cc2-af40-d37c2873e827|38=10000|40=2|44=500|54=1|55=PETR4|59=0|60=20251009-18:52:43.438|10=157|8=FIX.4.4|9=165|35=D|34=37|49=ORDERGEN|52=20251009-18:52:48.534|56=ORDERACC|11=2f319541-d27e-40d5-b6dc-cb4f9bc8d1b5|38=10000|40=2|44=500|54=2|55=PETR4|59=0|60=20251009-18:52:48.534|10=190|8=FIX.4.4|9=165|35=D|34=38|49=ORDERGEN|52=20251009-18:52:49.558|56=ORDERACC|11=91adb743-37dc-45a1-909a-5b0675f741f0|38=10000|40=2|44=500|54=2|55=PETR4|59=0|60=20251009-18:52:49.558|10=014|8=FIX.4.4|9=165|35=D|34=39|49=ORDERGEN|52=20251009-18:52:50.513|56=ORDERACC|11=6edb3386-81ec-4955-8ebb-4d23ab04cc03|38=10000|40=2|44=500|54=2|55=PETR4|59=0|60=20251009-18:52:50.513|10=121|8=FIX.4.4|9=165|35=D|34=40|49=ORDERGEN|52=20251009-18:52:51.424|56=ORDERACC|11=ac2d4170-893e-4d32-97a7-84396d63b53c|38=10000|40=2|44=500|54=2|55=PETR4|59=0|60=20251009-18:52:51.424|10=198|8=FIX.4.4|9=165|35=D|34=41|49=ORDERGEN|52=20251009-18:52:52.326|56=ORDERACC|11=6fd92dba-f347-40f6-b6ed-60ae0fd53dbe|38=10000|40=2|44=500|54=2|55=PETR4|59=0|60=20251009-18:52:52.326|10=063|8=FIX.4.4|9=165|35=D|34=42|49=ORDERGEN|52=20251009-18:52:53.127|56=ORDERACC|11=863184a0-5898-4f0b-9c56-5bac06b11cc4|38=10000|40=2|44=500|54=2|55=PETR4|59=0|60=20251009-18:52:53.127|10=239|8=FIX.4.4|9=165|35=D|34=43|49=ORDERGEN|52=20251009-18:52:55.280|56=ORDERACC|11=17f49fce-3c26-4398-8477-c0c093596c54|38=10000|40=2|44=500|54=1|55=PETR4|59=0|60=20251009-18:52:55.280|10=175|8=FIX.4.4|9=165|35=D|34=44|49=ORDERGEN|52=20251009-18:52:55.689|56=ORDERACC|11=960f0e5a-9afb-408a-870a-247d97472155|38=10000|40=2|44=500|54=1|55=PETR4|59=0|60=20251009-18:52:55.689|10=231|8=FIX.4.4|9=165|35=D|34=45|49=ORDERGEN|52=20251009-18:52:56.609|56=ORDERACC|11=f8674859-d322-4d71-91c9-7889a1dd51d5|38=10000|40=2|44=500|54=1|55=PETR4|59=0|60=20251009-18:52:56.609|10=193|8=FIX.4.4|9=165|35=D|34=46|49=ORDERGEN|52=20251009-18:52:57.064|56=ORDERACC|11=2a7ba84b-f894-45ab-a650-d089e4f080f0|38=10000|40=2|44=500|54=1|55=PETR4|59=0|60=20251009-18:52:57.064|10=091|8=FIX.4.4|9=165|35=D|34=47|49=ORDERGEN|52=20251009-18:52:57.823|56=ORDERACC|11=18a95f98-55cf-4c71-8aab-94f1a03ce539|38=10000|40=2|44=500|54=1|55=PETR4|59=0|60=20251009-18:52:57.823|10=112|8=FIX.4.4|9=165|35=D|34=48|49=ORDERGEN|52=20251009-18:52:58.273|56=ORDERACC|11=281ef74a-8c47-40b6-aa99-f7a9cdd562cd|38=10000|40=2|44=500|54=1|55=PETR4|59=0|60=20251009-18:52:58.273|10=209|8=FIX.4.4|9=165|35=D|34=49|49=ORDERGEN|52=20251009-18:52:59.009|56=ORDERACC|11=170d8c18-3525-420c-a2c7-6247ed82af23|38=10000|40=2|44=500|54=1|55=PETR4|59=0|60=20251009-18:52:59.009|10=199|8=FIX.4.4|9=165|35=D|34=50|49=ORDERGEN|52=20251009-18:52:59.687|56=ORDERACC|11=b4e7fe05-b01e-419f-a732-5643489fbb71|38=10000|40=2|44=500|54=1|55=PETR4|59=0|60=20251009-18:52:59.687|10=068|8=FIX.4.4|9=165|35=D|34=51|49=ORDERGEN|52=20251009-18:53:29.529|56=ORDERACC|11=df70ee01-91f3-4449-af49-e2df3e102d8f|38=10000|40=2|44=500|54=2|55=PETR4|59=0|60=20251009-18:53:29.529|10=154|