8=FIX.4.4|9=77|35=A|34=1|49=ORDERGEN|52=20251009-19:51:06.245|56=ORDERACC|98=0|108=30|141=Y|10=206|8=FIX.4.4|9=59|35=0|34=2|49=ORDERGEN|52=20251009-19:51:36.892|56=ORDERACC|10=131|8=FIX.4.4|9=158|35=D|34=3|49=ORDERGEN|52=20251009-19:51:43.219|56=ORDERACC|11=578492d5-2a30-41c3-ae1a-e8981cf5c1fd|38=1|40=2|44=1|54=1|55=PETR4|59=0|60=20251009-19:51:43.216|10=249|8=FIX.4.4|9=59|35=0|34=4|49=ORDERGEN|52=20251009-19:52:13.524|56=ORDERACC|10=121|8=FIX.4.4|9=59|35=0|34=5|49=ORDERGEN|52=20251009-19:52:43.877|56=ORDERACC|10=136|8=FIX.4.4|9=59|35=0|34=6|49=ORDERGEN|52=20251009-19:53:14.157|56=ORDERACC|10=127|8=FIX.4.4|9=59|35=0|34=7|49=ORDERGEN|52=20251009-19:53:44.460|56=ORDERACC|10=128|8=FIX.4.4|9=59|35=0|34=8|49=ORDERGEN|52=20251009-19:54:14.768|56=ORDERACC|10=138|8=FIX.4.4|9=59|35=0|34=9|49=ORDERGEN|52=20251009-19:54:45.210|56=ORDERACC|10=125|8=FIX.4.4|9=60|35=0|34=10|49=ORDERGEN|52=20251009-19:55:15.643|56=ORDERACC|10=165|