8=FIX.4.4|9=77|35=A|34=1|49=ORDERGEN|52=20251009-21:54:46.592|56=ORDERACC|98=0|108=30|141=Y|10=211|8=FIX.4.4|9=59|35=0|34=2|49=ORDERGEN|52=20251009-21:55:16.742|56=ORDERACC|10=120|8=FIX.4.4|9=164|35=D|34=3|49=ORDERGEN|52=20251009-21:55:22.009|56=ORDERACC|11=138aa34b-cd6a-42c4-91bf-d41f2fbdf99c|38=50000|40=2|44=500|54=1|55=PETR4|59=0|60=20251009-21:55:22.005|10=199|8=FIX.4.4|9=164|35=D|34=4|49=ORDERGEN|52=20251009-21:55:26.866|56=ORDERACC|11=0db2bbd4-f4eb-476b-8023-4d039433ac12|38=50000|40=2|44=500|54=1|55=PETR4|59=0|60=20251009-21:55:26.866|10=024|8=FIX.4.4|9=164|35=D|34=5|49=ORDERGEN|52=20251009-21:55:28.093|56=ORDERACC|11=04b94b4c-9bbc-412e-b2f4-86eefd5b7a3d|38=50000|40=2|44=500|54=1|55=PETR4|59=0|60=20251009-21:55:28.092|10=224|8=FIX.4.4|9=59|35=0|34=6|49=ORDERGEN|52=20251009-21:56:01.740|56=ORDERACC|10=117|8=FIX.4.4|9=68|35=1|34=7|49=ORDERGEN|52=20251009-21:56:41.017|56=ORDERACC|112=TEST|10=138|8=FIX.4.4|9=68|35=0|34=8|49=ORDERGEN|52=20251009-21:56:41.019|56=ORDERACC|112=TEST|10=140|8=FIX.4.4|9=164|35=D|34=9|49=ORDERGEN|52=20251009-21:56:45.214|56=ORDERACC|11=412f4aa0-4db6-4e2d-9273-dbf132b89036|38=50000|40=2|44=500|54=1|55=PETR4|59=0|60=20251009-21:56:45.214|10=226|8=FIX.4.4|9=165|35=D|34=10|49=ORDERGEN|52=20251009-21:56:46.714|56=ORDERACC|11=942f73d4-f515-4d44-a28b-ff3661f0148f|38=50000|40=2|44=500|54=1|55=PETR4|59=0|60=20251009-21:56:46.714|10=252|8=FIX.4.4|9=165|35=D|34=11|49=ORDERGEN|52=20251009-21:56:47.422|56=ORDERACC|11=0d743be2-87df-4316-a47c-c3e03addb98d|38=50000|40=2|44=500|54=1|55=PETR4|59=0|60=20251009-21:56:47.422|10=172|8=FIX.4.4|9=165|35=D|34=12|49=ORDERGEN|52=20251009-21:56:48.593|56=ORDERACC|11=efd15405-387b-4a56-aff3-5baba61c15a9|38=50000|40=2|44=500|54=1|55=PETR4|59=0|60=20251009-21:56:48.593|10=185|8=FIX.4.4|9=165|35=D|34=13|49=ORDERGEN|52=20251009-21:56:49.042|56=ORDERACC|11=0a8ac391-2d47-4bda-acf8-c83d6180adef|38=50000|40=2|44=500|54=1|55=PETR4|59=0|60=20251009-21:56:49.041|10=007|8=FIX.4.4|9=60|35=0|34=14|49=ORDERGEN|52=20251009-21:57:19.332|56=ORDERACC|10=163|8=FIX.4.4|9=60|35=0|34=15|49=ORDERGEN|52=20251009-21:57:49.959|56=ORDERACC|10=182|8=FIX.4.4|9=69|35=1|34=16|49=ORDERGEN|52=20251009-21:57:56.011|56=ORDERACC|112=TEST|10=188|8=FIX.4.4|9=69|35=0|34=17|49=ORDERGEN|52=20251009-21:58:00.607|56=ORDERACC|112=TEST|10=189|8=FIX.4.4|9=60|35=0|34=18|49=ORDERGEN|52=20251009-21:58:31.123|56=ORDERACC|10=160|