8=FIX.4.4|9=77|35=A|34=1|49=ORDERGEN|52=20251009-17:46:21.038|56=ORDERACC|98=0|108=30|141=Y|10=205|8=FIX.4.4|9=59|35=0|34=2|49=ORDERGEN|52=20251009-17:46:52.274|56=ORDERACC|10=125|8=FIX.4.4|9=158|35=D|34=3|49=ORDERGEN|52=20251009-17:46:52.282|56=ORDERACC|11=e7cca051-83a6-4d54-bc7b-7b7c9ffff395|38=1|40=2|44=1|54=1|55=PETR4|59=0|60=20251009-17:46:52.277|10=163|8=FIX.4.4|9=59|35=0|34=4|49=ORDERGEN|52=20251009-17:47:23.252|56=ORDERACC|10=122|8=FIX.4.4|9=59|35=0|34=5|49=ORDERGEN|52=20251009-17:47:53.577|56=ORDERACC|10=136|8=FIX.4.4|9=59|35=0|34=6|49=ORDERGEN|52=20251009-17:48:23.877|56=ORDERACC|10=138|8=FIX.4.4|9=59|35=0|34=7|49=ORDERGEN|52=20251009-17:48:54.465|56=ORDERACC|10=136|8=FIX.4.4|9=59|35=0|34=8|49=ORDERGEN|52=20251009-17:49:25.122|56=ORDERACC|10=126|8=FIX.4.4|9=59|35=0|34=9|49=ORDERGEN|52=20251009-17:49:55.445|56=ORDERACC|10=138|8=FIX.4.4|9=60|35=0|34=10|49=ORDERGEN|52=20251009-17:50:25.755|56=ORDERACC|10=163|