8=FIX.4.4|9=77|35=A|34=1|49=ORDERGEN|52=20251010-01:31:18.240|56=ORDERACC|98=0|108=30|141=Y|10=185|