8=FIX.4.4|9=77|35=A|34=1|49=ORDERGEN|52=20251015-19:30:02.193|56=ORDERACC|98=0|108=30|141=Y|10=198|8=FIX.4.4|9=164|35=D|34=2|49=ORDERGEN|52=20251015-19:30:29.427|56=ORDERACC|11=fc7d1b79-cee1-48b7-a575-6618debaaac8|38=50000|40=2|44=500|54=1|55=PETR4|59=0|60=20251015-19:30:29.425|10=230|8=FIX.4.4|9=164|35=D|34=3|49=ORDERGEN|52=20251015-19:30:32.178|56=ORDERACC|11=daf14564-26b8-4b14-8e73-60a017e56662|38=50000|40=2|44=500|54=1|55=PETR4|59=0|60=20251015-19:30:32.178|10=089|8=FIX.4.4|9=164|35=D|34=4|49=ORDERGEN|52=20251015-19:30:34.130|56=ORDERACC|11=6c0e4f45-9daa-48c5-be42-33be156bd470|38=50000|40=2|44=500|54=1|55=PETR4|59=0|60=20251015-19:30:34.130|10=049|8=FIX.4.4|9=164|35=D|34=5|49=ORDERGEN|52=20251015-19:30:36.160|56=ORDERACC|11=94700313-3e73-4c62-9cfa-a4360fa7d818|38=50000|40=2|44=500|54=1|55=PETR4|59=0|60=20251015-19:30:36.159|10=137|8=FIX.4.4|9=164|35=D|34=6|49=ORDERGEN|52=20251015-19:30:37.729|56=ORDERACC|11=b059c205-c208-4ef1-b7b1-46faa7ef2330|38=50000|40=2|44=500|54=1|55=PETR4|59=0|60=20251015-19:30:37.729|10=025|8=FIX.4.4|9=164|35=D|34=7|49=ORDERGEN|52=20251015-19:30:44.558|56=ORDERACC|11=d08589a4-4e6d-4762-aaa8-05caec6bd108|38=50000|40=2|44=500|54=1|55=VIIA4|59=0|60=20251015-19:30:44.558|10=067|8=FIX.4.4|9=164|35=D|34=8|49=ORDERGEN|52=20251015-19:30:46.202|56=ORDERACC|11=aca8c7c3-2483-4043-a05a-0b597d79fa29|38=50000|40=2|44=500|54=1|55=VIIA4|59=0|60=20251015-19:30:46.202|10=203|8=FIX.4.4|9=164|35=D|34=9|49=ORDERGEN|52=20251015-19:30:49.658|56=ORDERACC|11=eb66a9e9-de46-4749-b1fb-fdced04bc955|38=50000|40=2|44=500|54=1|55=VIIA4|59=0|60=20251015-19:30:49.658|10=246|8=FIX.4.4|9=60|35=0|34=10|49=ORDERGEN|52=20251015-19:31:19.973|56=ORDERACC|10=166|8=FIX.4.4|9=60|35=0|34=11|49=ORDERGEN|52=20251015-19:31:50.255|56=ORDERACC|10=155|