8=FIX.4.4|9=77|35=A|34=1|49=ORDERGEN|52=20251009-22:41:32.288|56=ORDERACC|98=0|108=30|141=Y|10=205|8=FIX.4.4|9=158|35=D|34=2|49=ORDERGEN|52=20251009-22:41:49.011|56=ORDERACC|11=572e1310-38be-4d2d-9c31-eb5e402cffc8|38=1|40=2|44=1|54=1|55=PETR4|59=0|60=20251009-22:41:49.009|10=021|8=FIX.4.4|9=158|35=D|34=3|49=ORDERGEN|52=20251009-22:41:59.382|56=ORDERACC|11=20469e2f-8309-4ebb-9c17-fa9152234008|38=1|40=2|44=1|54=1|55=PETR4|59=0|60=20251009-22:41:59.382|10=062|8=FIX.4.4|9=158|35=D|34=4|49=ORDERGEN|52=20251009-22:42:00.933|56=ORDERACC|11=fe746070-726d-46e0-84bf-b6190a57ceb3|38=1|40=2|44=1|54=1|55=PETR4|59=0|60=20251009-22:42:00.933|10=190|8=FIX.4.4|9=158|35=D|34=5|49=ORDERGEN|52=20251009-22:42:02.479|56=ORDERACC|11=18ca685f-0711-403d-b8b1-5cb6326cb4a1|38=1|40=2|44=1|54=1|55=PETR4|59=0|60=20251009-22:42:02.479|10=181|8=FIX.4.4|9=158|35=D|34=6|49=ORDERGEN|52=20251009-22:42:04.014|56=ORDERACC|11=c431ae90-1c95-4732-93ea-367cd3fd32bf|38=1|40=2|44=1|54=1|55=PETR4|59=0|60=20251009-22:42:04.014|10=222|8=FIX.4.4|9=158|35=D|34=7|49=ORDERGEN|52=20251009-22:42:06.895|56=ORDERACC|11=22ce0846-666b-4d1c-bcfd-e8e9305e3df3|38=1|40=2|44=1|54=1|55=VALE3|59=0|60=20251009-22:42:06.895|10=087|8=FIX.4.4|9=158|35=D|34=8|49=ORDERGEN|52=20251009-22:42:10.213|56=ORDERACC|11=ad92e0e3-78bb-4522-92af-ffeca6b3d3f8|38=1|40=2|44=1|54=1|55=VIIA4|59=0|60=20251009-22:42:10.213|10=143|8=FIX.4.4|9=158|35=D|34=9|49=ORDERGEN|52=20251009-22:42:14.227|56=ORDERACC|11=eec0c0a1-2f60-4a4e-b1ed-91a53372942d|38=1|40=2|44=1|54=1|55=PETR4|59=0|60=20251009-22:42:14.227|10=012|8=FIX.4.4|9=60|35=0|34=10|49=ORDERGEN|52=20251009-22:42:44.483|56=ORDERACC|10=159|8=FIX.4.4|9=60|35=0|34=11|49=ORDERGEN|52=20251009-22:43:14.780|56=ORDERACC|10=158|