8=FIX.4.4|9=77|35=A|34=1|49=ORDERGEN|52=20251010-12:31:58.930|56=ORDERACC|98=0|108=30|141=Y|10=197|8=FIX.4.4|9=59|35=0|34=2|49=ORDERGEN|52=20251010-12:32:29.287|56=ORDERACC|10=115|