8=FIX.4.4|9=77|35=A|34=1|49=ORDERGEN|52=20251009-18:25:06.931|56=ORDERACC|98=0|108=30|141=Y|10=208|8=FIX.4.4|9=158|35=D|34=2|49=ORDERGEN|52=20251009-18:25:24.508|56=ORDERACC|11=a334ba5c-300b-47df-b7c8-7f572957d624|38=2|40=2|44=2|54=1|55=PETR4|59=0|60=20251009-18:25:24.505|10=206|8=FIX.4.4|9=59|35=0|34=3|49=ORDERGEN|52=20251009-18:25:55.355|56=ORDERACC|10=127|8=FIX.4.4|9=59|35=0|34=4|49=ORDERGEN|52=20251009-18:26:25.580|56=ORDERACC|10=126|8=FIX.4.4|9=59|35=0|34=5|49=ORDERGEN|52=20251009-18:26:56.147|56=ORDERACC|10=130|