8=FIX.4.4|9=77|35=A|34=1|49=ORDERGEN|52=20251009-14:38:31.415|56=ORDERACC|98=0|108=30|141=Y|10=203|8=FIX.4.4|9=59|35=0|34=2|49=ORDERGEN|52=20251009-14:39:01.974|56=ORDERACC|10=125|8=FIX.4.4|9=59|35=0|34=3|49=ORDERGEN|52=20251009-14:39:32.226|56=ORDERACC|10=120|8=FIX.4.4|9=59|35=0|34=4|49=ORDERGEN|52=20251009-14:40:02.960|56=ORDERACC|10=115|8=FIX.4.4|9=59|35=0|34=5|49=ORDERGEN|52=20251009-14:40:33.103|56=ORDERACC|10=109|8=FIX.4.4|9=59|35=0|34=6|49=ORDERGEN|52=20251009-14:41:03.316|56=ORDERACC|10=114|8=FIX.4.4|9=59|35=0|34=7|49=ORDERGEN|52=20251009-14:41:33.568|56=ORDERACC|10=127|8=FIX.4.4|9=59|35=0|34=8|49=ORDERGEN|52=20251009-14:42:03.860|56=ORDERACC|10=121|8=FIX.4.4|9=59|35=0|34=9|49=ORDERGEN|52=20251009-14:42:34.076|56=ORDERACC|10=125|8=FIX.4.4|9=60|35=0|34=10|49=ORDERGEN|52=20251009-14:43:04.286|56=ORDERACC|10=158|8=FIX.4.4|9=60|35=0|34=11|49=ORDERGEN|52=20251009-14:43:34.546|56=ORDERACC|10=161|8=FIX.4.4|9=60|35=0|34=12|49=ORDERGEN|52=20251009-14:44:04.830|56=ORDERACC|10=156|8=FIX.4.4|9=60|35=0|34=13|49=ORDERGEN|52=20251009-14:44:35.099|56=ORDERACC|10=168|8=FIX.4.4|9=60|35=0|34=14|49=ORDERGEN|52=20251009-14:45:05.374|56=ORDERACC|10=163|8=FIX.4.4|9=60|35=0|34=15|49=ORDERGEN|52=20251009-14:45:35.620|56=ORDERACC|10=161|8=FIX.4.4|9=60|35=0|34=16|49=ORDERGEN|52=20251009-14:46:05.847|56=ORDERACC|10=171|8=FIX.4.4|9=60|35=0|34=17|49=ORDERGEN|52=20251009-14:46:36.126|56=ORDERACC|10=166|8=FIX.4.4|9=60|35=0|34=18|49=ORDERGEN|52=20251009-14:47:06.438|56=ORDERACC|10=171|8=FIX.4.4|9=60|35=0|34=19|49=ORDERGEN|52=20251009-14:47:36.708|56=ORDERACC|10=175|8=FIX.4.4|9=60|35=0|34=20|49=ORDERGEN|52=20251009-14:48:06.989|56=ORDERACC|10=176|8=FIX.4.4|9=60|35=0|34=21|49=ORDERGEN|52=20251009-14:48:37.236|56=ORDERACC|10=166|8=FIX.4.4|9=60|35=0|34=22|49=ORDERGEN|52=20251009-14:49:07.518|56=ORDERACC|10=168|8=FIX.4.4|9=60|35=0|34=23|49=ORDERGEN|52=20251009-14:49:37.788|56=ORDERACC|10=181|8=FIX.4.4|9=60|35=0|34=24|49=ORDERGEN|52=20251009-14:50:08.228|56=ORDERACC|10=161|8=FIX.4.4|9=60|35=0|34=25|49=ORDERGEN|52=20251009-14:50:38.544|56=ORDERACC|10=166|8=FIX.4.4|9=60|35=0|34=26|49=ORDERGEN|52=20251009-14:51:08.832|56=ORDERACC|10=165|